:020000040800F2
:100000000000082055800008A5800008A580000891
:10001000A5800008A5800008A58000080000000059
:10002000000000000000000000000000A5800008A3
:10003000A580000800000000A58000087F68000877
:10004000A5800008A5800008A5800008A5800008FC
:10005000A5800008A58000089D690008A369000824
:10006000A9690008AF690008B5690008A580000803
:10007000A5800008A5800008A5800008A5800008CC
:10008000A5800008A5800008A5800008A5800008BC
:10009000A5800008A5800008A5800008BB690008AD
:1000A00049650008616400085D6500088564000812
:1000B00099640008AD640008C1640008891A00084A
:1000C000951A0008A11A0008AD1A0008A5800008BA
:1000D000A58000086D77000885770008A1770008E3
:1000E000E3690008A5800008A58000087165000884
:1000F000116500088565000835650008A5800008C1
:10010000A5800008A5800008D5640008A580000827
:10011000BD770008D5770008E9640008FD64000891
:10012000A5800008A5800008A5800008A58000081B
:10013000A5800008A5800008A5800008A58000080B
:10014000A5800008A5800008A5800008A5800008FB
:10015000A5800008A5800008A5800008ED770008AC
:10016000B91A0008C51A0008A5800008A580000873
:10017000A5800008A5800008A580000800000000F8
:10018000A5800008A5800008057800081D780008F3
:10019000A5800008A5800008A5800008A5800008AB
:1001A000A5800008A5800008A5800008A58000089B
:1001B000A5800008A5800008A5800008D11A0008C5
:1001C000ED1A0008A580000800000000A5800008C6
:1001D000A5800008A5800008A5800008A58000086B
:1001E000A5800008A5800008A5800008A58000085B
:0801F000A5800008A5800008AD
:1001F80010F8012B11F8013B012A28BF9A42F7D0C9
:10020800D01A7047034613F8012B002AFBD1181A9D
:100218000138704781F0004102E000BF83F00043DD
:1002280030B54FEA41044FEA430594EA050F08BF89
:1002380090EA020F1FBF54EA000C55EA020C7FEA4D
:10024800645C7FEA655C00F0E2804FEA5454D4EBCA
:100258005555B8BF6D420CDD2C4480EA020281EA94
:10026800030382EA000083EA010180EA020281EACC
:100278000303362D88BF30BD11F0004F4FEA01311E
:100288004FF4801C4CEA113102D0404261EB41012D
:1002980013F0004F4FEA03334CEA133302D05242B3
:1002A80063EB430394EA050F00F0A780A4F101046F
:1002B800D5F1200E0DDB02FA0EFC22FA05F28018A9
:1002C80041F1000103FA0EF2801843FA05F359418F
:1002D8000EE0A5F120050EF1200E012A03FA0EFC0E
:1002E80028BF4CF0020C43FA05F3C01851EBE37138
:1002F80001F0004507D54FF0000EDCF1000C7EEB55
:1003080000006EEB0101B1F5801F1BD3B1F5001F92
:100318000CD349085FEA30004FEA3C0C04F10104B1
:100328004FEA445212F5800F80F09A80BCF1004FDA
:1003380008BF5FEA500C50F1000041EB045141EA5C
:10034800050130BD5FEA4C0C404141EB0101013C25
:1003580028BFB1F5801FE9D291F0000F04BF014614
:100368000020B1FA81F308BF2033A3F10B03B3F1E6
:1003780020020CDA0C3208DD02F1140CC2F10C0276
:1003880001FA0CF021FA02F10CE002F11402D8BFD4
:10039800C2F1200C01FA02F120FA0CFCDCBF41EAA0
:1003A8000C019040E41AA2BF01EB0451294330BD6F
:1003B8006FEA04041F3C1CDA0C340EDC04F114044C
:1003C800C4F1200220FA04F001FA02F340EA030023
:1003D80021FA04F345EA030130BDC4F10C04C4F169
:1003E800200220FA02F001FA04F340EA0300294649
:1003F80030BD21FA04F0294630BD94F0000F83F493
:10040800801306BF81F480110134013D4EE77FEA75
:10041800645C18BF7FEA655C29D094EA050F08BFC1
:1004280090EA020F05D054EA000C04BF19461046A2
:1004380030BD91EA030F1EBF0021002030BD5FEAE6
:10044800545C05D14000494128BF41F0004130BD0E
:1004580014F580043CBF01F5801130BD01F0004562
:1004680045F0FE4141F470014FF0000030BD7FEAD5
:10047800645C1ABF194610467FEA655C1CBF0B46D0
:10048800024650EA013406BF52EA033591EA030FE7
:1004980041F4002130BD00BF90F0000F04BF0021DF
:1004A800704730B54FF4806404F132044FF0000512
:1004B8004FF0000150E700BF90F0000F04BF00218B
:1004C800704730B54FF4806404F1320410F00045F1
:1004D80048BF40424FF000013EE700BF42004FEAEC
:1004E800E2014FEA31014FEA02701FBF12F07F4369
:1004F80093F07F4F81F06051704732F07F4208BF20
:10050800704793F07F4F04BF41F40021704730B526
:100518004FF4607401F0004521F000411CE700BF72
:1005280050EA010208BF704730B54FF000050AE0F5
:1005380050EA010208BF704730B511F0004502D5F6
:10054800404261EB41014FF4806404F132045FEAF8
:10055800915C3FF4D8AE4FF003025FEADC0C18BFA1
:1005680003325FEADC0C18BF033202EBDC02C2F193
:10057800200300FA03FC20FA02F001FA03FE40EA25
:100588000E0021FA02F11444BDE600BF70B54FF029
:10059800FF0C4CF4E06C1CEA11541DBF1CEA135507
:1005A80094EA0C0F95EA0C0F00F0DEF82C4481EA6F
:1005B800030621EA4C5123EA4C5350EA013518BF8F
:1005C80052EA033541F4801143F4801338D0A0FB7C
:1005D80002CE4FF00005E1FB02E506F00042E0FB29
:1005E80003E54FF00006E1FB03569CF0000F18BF2F
:1005F8004EF0010EA4F1FF04B6F5007F64F54074D7
:1006080004D25FEA4E0E6D4146EB060642EAC62169
:1006180041EA55514FEAC52040EA5E504FEACE2ED6
:10062800B4F1FD0C88BFBCF5E06F1ED8BEF1004FD9
:1006380008BF5FEA500E50F1000041EB045170BD55
:1006480006F0004646EA010140EA020081EA030199
:10065800B4EB5C04C2BFD4EB0C0541EA045170BD95
:1006680041F480114FF0000E013C00F3AB8014F10F
:10067800360FDEBF002001F0004170BDC4F1000458
:10068800203C35DA0C341BDC04F11404C4F12005D9
:1006980000FA05F320FA04F001FA05F240EA020034
:1006A80001F0004221F0004110EBD37021FA04F66A
:1006B80042EB06015EEA430E08BF20EAD37070BD24
:1006C800C4F10C04C4F1200500FA04F320FA05F083
:1006D80001FA04F240EA020001F0004110EBD37085
:1006E80041F100015EEA430E08BF20EAD37070BDF5
:1006F800C4F1200500FA05F24EEA020E20FA04F3CE
:1007080001FA05F243EA020321FA04F001F000417C
:1007180021FA04F220EA020000EBD3705EEA430EED
:1007280008BF20EAD37070BD94F0000F0FD101F01C
:100738000046400041EB010111F4801F08BF013C55
:10074800F7D041EA060195F0000F18BF704703F093
:100758000046520043EB030313F4801F08BF013D1A
:10076800F7D043EA0603704794EA0C0F0CEA1355D6
:1007780018BF95EA0C0F0CD050EA410618BF52EA90
:100788004306D1D181EA030101F000414FF0000096
:1007980070BD50EA410606BF1046194652EA4306A4
:1007A80019D094EA0C0F02D150EA013613D195EA18
:1007B8000C0F05D152EA03361CBF104619460AD160
:1007C80081EA030101F0004141F0FE4141F470016A
:1007D8004FF0000070BD41F0FE4141F4780170BD5A
:1007E80070B54FF0FF0C4CF4E06C1CEA11541DBFBF
:1007F8001CEA135594EA0C0F95EA0C0F00F0A7F8C1
:10080800A4EB050481EA030E52EA03354FEA0131ED
:1008180000F088804FEA03334FF0805545EA131300
:1008280043EA12634FEA022245EA111545EA1065C8
:100838004FEA00260EF000419D4208BF964244F15F
:10084800FD0404F5407402D25B084FEA3202B61A7E
:1008580065EB03055B084FEA32024FF480104FF452
:10086800002CB6EB020E75EB030E22BFB61A7546C6
:1008780040EA0C005B084FEA3202B6EB020E75EB59
:10088800030E22BFB61A754640EA5C005B084FEAC1
:100898003202B6EB020E75EB030E22BFB61A75468E
:1008A80040EA9C005B084FEA3202B6EB020E75EB99
:1008B800030E22BFB61A754640EADC0055EA060E5A
:1008C80018D04FEA051545EA16754FEA06164FEA9D
:1008D800C30343EA52734FEAC2025FEA1C1CC0D149
:1008E80011F4801F0BD141EA00014FF000004FF0D6
:1008F800004CB6E711F4801F04BF01430020B4F197
:10090800FD0C88BFBCF5E06F3FF6AFAEB5EB030C4E
:1009180004BFB6EB020C5FEA500C50F1000041EB4B
:10092800045170BD0EF0004E4EEA113114EB5C0418
:10093800C2BFD4EB0C0541EA045170BD41F48011EB
:100948004FF0000E013C90E645EA060E8DE60CEAF3
:10095800135594EA0C0F08BF95EA0C0F3FF43BAF10
:1009680094EA0C0F0AD150EA01347FF434AF95EAC7
:100978000C0F7FF425AF104619462CE795EA0C0FAB
:1009880006D152EA03353FF4FDAE1046194622E778
:1009980050EA410618BF52EA43067FF4C5AE50EA52
:1009A80041047FF40DAF52EA43057FF4EBAE12E742
:1009B8004FEA4102B2F1E04324BFB3F5001CDCF179
:1009C800FE5C0DD901F0004C4FEAC0024CEA5070B1
:1009D800B2F1004F40EB830008BF20F001007047E0
:1009E80011F0804F21D113F13872BCBF01F00040E3
:1009F800704741F480114FEA5252C2F11802C2F115
:100A0800200C10FA0CF320FA02F018BF40F0010095
:100A18004FEAC1234FEAD32303FA0CFC40EA0C0047
:100A280023FA02F34FEA4303CCE77FEA625307D184
:100A380050EA01331EBF4FF0FE4040F440007047BB
:100A480001F0004040F0FE4040F40000704700BF55
:100A580053B94AB9002908BF00281CBF4FF0FF311D
:100A68004FF0FF3000F00CB8ADF1080C6DE904CE82
:100A780007F03EFFDDF804E0DDE9022304B070472B
:100A8800704700BF10B5054C237833B9044B13B138
:100A98000448AFF300800123237010BDB00000208C
:100AA80000000000F88B000808B5034B1BB1034990
:100AB8000348AFF3008008BD00000000B400002028
:100AC800F88B000810B5264C06224FF4E131244873
:100AD80007F0C6F894F85031E3B12249204807F0EE
:100AE80053F9214B2149D3F814212148C1F8882012
:100AF8000A46D3F81031C1F8843000234A2101F0A6
:100B080011F958B91B49164807F03EF90A2007F0B1
:100B180069FBFBE70A2007F065FBDBE7164910488D
:100B280007F032F942F210720521114801F060F91C
:100B380042F2107201210E4801F05AF942F2107285
:100B480002210B4801F054F942F2107203210848BF
:100B580001F04EF907F044FB084B186010BD00BFC8
:100B6800180F00201D8C0008B8960008740100209A
:100B780008010020398C0008548C0008CC000020A3
:100B880038B541482DED028B01F012F9D8B13F4933
:100B98003F4807F0F9F842F2107205213A4801F08F
:100BA80027F942F210720121374801F021F942F287
:100BB80010720221344801F01BF942F2107203212D
:100BC800314801F015F9334C2F48214601F0F8F867
:100BD800002837D0304A1368013313602378032B79
:100BE80030D1D4ED050A94ED060A07F0FFFC10EEAB
:100BF800100AFFF773FC0022284BFFF7C7FC20A35D
:100C0800D3E90023FFF7ECFDFFF7D2FE08EE100A48
:100C18002349B5EEC08A1E48F1EE10FA44BFDFED55
:100C2800217A38EE278A07F095F801211848B0EEA6
:100C3800480A07F059F91C49154807F0A5F814485F
:100C480007F090F8194C07F0CBFA2368C01AB0F5F2
:100C58007A7F12D3104D16490D4807F07BF80A2207
:100C680029680B4807F0B1F81249094807F08CF8D1
:100C780000232B6007F0B4FA2060BDEC028B38BD6E
:100C8800182D4454FB21094008010020628C0008FB
:100C9800180F0020D8000020D000002000806640F7
:100CA800738C00080000B443848C0008CC0000203A
:100CB800878C0008988C00084FF0FF31014801F03C
:100CC80025B800BF08010020014801F029B800BF7D
:100CD8000801002000207047028BC08A101A704754
:100CE800C28A0346018B914283BF0169885C013245
:100CF8004FF0FF3088BFDA827047028BC38A9A426E
:100D080086BF0269D05C4FF0FF307047806DD0F825
:100D1800DC302BB10023D43020F8B23CC36818472C
:100D28007047836810B5044613B1032201469847FB
:100D3800204610BD70B54FF47A730E460021154653
:100D48002C4A0446C0E90113034643F8C42B9C22ED
:100D5800C0F8C410C3E90111C0E93411C0E9361163
:100D6800C0F8E010283007F04FFBF3B2742B19D805
:100D7800214A06F4E06652F823301E43EBB2C4F869
:100D88008460742B22D81C4A05F4E06552F823309D
:100D98001D4300232046C4F88850E361238423615F
:100DA800A38270BD06F0C002C02A0CD1D72B0AD886
:100DB80006F03F02114B06F4E06653F822200E4B72
:100DC80053F82230D9E74FF0FF36D7E705F0C002D5
:100DD800C02A0CD1D72B0AD805F03F02074B05F4DF
:100DE800E06553F82220044B53F82230D0E74FF047
:100DF800FF35CEE7508D0008B896000858960008D1
:100E080038B50446283000F091FCE06918B107F0C5
:100E18000FFA0023E36100252069258410B107F04B
:100E280007FA2561A58238BD38B5084B0546044642
:100E380045F8D43BFFF7E4FF2846FFF772FF04F1BB
:100E4800C400FFF76EFF204638BD00BF508D000874
:100E58000123994080F82430002381764384704729
:100E680038B5838A05460C468B4209D22029006989
:100E780038BF2024214607F091FA10B12861AC82CE
:100E880038BDFEE773B5846D0546866ED4F8CC3060
:100E9800E3B1E28A238B9A4218D331462046FFF702
:100EA800DFFF324605F17401206907F0F3FA0023E9
:100EB8002683E382D4F8CC3001960BB907F094FE70
:100EC800D4F8D03001A904F1C400984702B070BD2D
:100ED800B1F5806F70B505460C4610D8038C994261
:100EE8000AD920290E46C06938BF2026314607F0A6
:100EF80055FA18B1E8612E84204670BDFEE700243B
:100F0800FAE713B590F8243004468DF807107BB142
:100F1800418C0131FFF7DCFF40B1638C01209DF863
:100F28000710E269D154638C0133638402B010BDA9
:100F380001220DF10701283000F05AFCB0FA80F0C8
:100F48004009F3E770B590F8243004460E4615467C
:100F580093B1418C1144FFF7BBFF10B90025284617
:100F680070BD638C2A46E0693146184407F092FA4E
:100F7800638C2B446384F2E792B2283000F038FC8B
:100F88000028EBD1EBE70346006918B19A8A0021E3
:100F980007F03ABA70470346C06918B11A8C0021A5
:100FA80007F032BA704738B50446C9B9AA23A36511
:100FB80094F8BE30012B16D1638C04F12800E26945
:100FC800A17E00F095FC042828BF0420C5B2204665
:100FD800FFF7E1FF0023638484F82430284638BDF6
:100FE8004FF42A43E3E70425F8E72DE9F04790F8A2
:100FF800BEA004460F461546BAF1010F98469DF863
:1010080020609DF8249039D17F001146FFF728FF12
:10101800FFB286B1032E4FF0000384F824A028BF46
:101028000326A7766384013EF6B2FF2E1AD100216B
:101038002046FFF7B8FFB9F1000F1CD1AA23A3651A
:1010480039462B46226904F128002E4600F0EAFBB7
:1010580000239842E3821CBF1D462E46284626835D
:10106800BDE8F087F1002368204628FA01F11B68E3
:10107800C9B29847D7E74FF42A43E0E70020EFE7E3
:1010880007B5019300230093FFF7AFFF03B05DF8A6
:1010980004FB0121FFF787BF38B500250446C58248
:1010A8000583FFF770FF20466584FFF774FF38BD9E
:1010B8002DE9F0410446D0F8840006F0ADFF002188
:1010C80006F0EEFFD4F88430C3F303120A2A44D89A
:1010D800264D03F00F03264F55F8222057F82330EA
:1010E800126993433FD0D4F8880006F095FF012198
:1010F80006F0D6FF1F4BD4F888001B681E4CC0F3BF
:10110800031100F00F02B3FBF4F30A24A14204FB1D
:1011180003F325D857F822701426184A4FEA074EC9
:1011280055F821C0CCF818E0D2F804805468A4EB34
:101138000804A342FADCCCF81870D2F804C054684A
:10114800A4EB0C04A342FADC013EE9D106F064FFEB
:101158003146BDE8F04106F0A3BF00231B69FFDE5E
:1011680000239B61FBE7BDE8F08100BF0800002079
:10117800F08D00085800002040420F00001000E0E9
:101188002DE9F041002504461F460E46C5829046CB
:101198000583FFF7F8FE20466584A576FFF7FBFE7A
:1011A800D4F8DC30C4F8804033B104F1D401032210
:1011B80008469847C4E937550023012E84F8BF80B4
:1011C80084F824304FEA460384F8C07084F8253048
:1011D8000CBF0123002384F8BE3002D12046FFF75C
:1011E80067FF04F1280594F825200949284600F0EE
:1011F800B7F994F8BE304BB92846064900F0D0FB41
:1012080028460549BDE8F04100F0C3BBBDE8F081C0
:10121800A0860100150D00088D0E00080A4600235F
:101228000121FFF7ADBF00000F220E210148FFF793
:1012380081BD00BF740100200148FFF7F5BD00BF64
:101248007401002008B5304B984213D14FF4804008
:1012580004F0C6F800284ED12C4BD3F8903003F494
:101268004033B3F5803F44D0B3F5003F4AD0002B5C
:1012780042D0FEE7264B984211D14FF4004004F0CB
:10128800AFF8C0BB214BD3F8903003F44023B3F53B
:10129800802F2ED0B3F5002F34D06BB3FEE71D4B53
:1012A800984211D14FF4803004F09AF818BB174BCC
:1012B800D3F8903003F44013B3F5801F19D0B3F579
:1012C800001F1FD0C3B1FEE7134B984218D14FF44B
:1012D800003004F085F870B90C4BD3F8903003F463
:1012E8004003B3F5800F04D0B3F5000F0AD01BB14B
:1012F800FEE70A4B186808BDBDE8084003F0A0BD2A
:101308000020F8E70648F6E700540040003802409D
:1013180000580040005C0040006000405800002079
:101328000024F400794B53F8312082422DE9F04F24
:101338009BB007D103EBC102D2F804E0BEF1000F65
:1013480040F0DF80724C1C22724D4FF0FF3E4A4342
:1013580043F8310004EB5003B3FBF0F0AB18AA5884
:1013680004EB52059E7EB5FBF2F2DD8A0C920595E0
:10137800059F1D8A1A8B3D440D92F21C0D9F1295F4
:101388009D8942433D44059F323DAD1A024425EAFA
:10139800E5750695DD89ED1BA5F58275AA1A002568
:1013A80022EAE2720995079200FB06F208925A684F
:1013B800B4FBF2F213929A68B4FBF2F21492089A10
:1013C80002EB40023232841810920C9A0E921022CC
:1013D8000F92EAB22E071192109A18960026A21AB6
:1013E80004960B92129E0B9FBE427AD8189F049EB9
:1013F8003E43464F179607EBC10700261997CDE9DC
:101408000266069F029EB74261D8079E029FBE42AF
:101418005DD30F9E119FBE4259D0099F0137072FF8
:1014280009976ED85E8A059F15960D9EF7193E1985
:10143800039F0A96089EA4EB0608179E3E4316963D
:1014480000260196089E06EB080C159E664534D2C8
:10145800A8F1320CB0EB9C0F2FD20A9EA246019F36
:101468004FF0000906EB040C169E3E433746149EC7
:1014780066451BD8139E664518D3B3F814B0DA45F1
:1014880014D3504512D20C9EACEB060B0E9EBBF14A
:10149800000FB8BFCBF1000BB34507D2199E49EA3C
:1014A800070EC6F804E0119ECDE90EB609F580795D
:1014B80094449244B9F5803FD9D1019E90440A9F43
:1014C80001361744B6F5807F01960A97BAD1039E74
:1014D800029F06F580361744B6F5801F03960297DB
:1014E8008FD10B9E16440B96049E06F58016B6F116
:1014F800807F04967FF476AF01350444102D7FF485
:1015080068AF70461BB0BDE8F08F00BF68020020CE
:1015180000CA9A3B748D000808B50E4B994212D93F
:101528000D4B994207D80068FFF78CFE0121BDE8F2
:101538000840FFF7F7BE094B994209D80068FFF742
:1015480081FE0221F3E70068FFF77CFE0021EEE749
:10155800002008BDA0860100801A060040420F0046
:10156800F0B50E4685B015460446002800F0CE803A
:101578006749C06D05F086FB07466649206E05F091
:1015880081FB0146002F00F0C180002800F0BE80DA
:10159800384605F09EFB2060002800F0B7805E4BBF
:1015A800271D984257D103F5F2331A6C42F4001202
:1015B8001A641A6C02F400120092009A1A6A42F431
:1015C80000121A621A6A22F400121A6242F21F0307
:1015D800A4F86430514B1F604E49206E05F03AFB69
:1015E8004B49E06D05F036FB2368314620466360C1
:1015F800FFF792FF01230221C4E90205002594F9AF
:101608006400C4E9043594F897302A46A5615B1B49
:1016180084F8455018BF0123DB04236294F89830FE
:101628005B1B18BF01235B04636201F031FE94F970
:10163800640001F05FFE2A46022194F9650001F07A
:1016480027FE94F9650001F055FE384602F0D1F8FE
:10165800002857D0FEE7324B984219D103F5F033F2
:101668001A6C42F480021A641A6C02F48002019225
:10167800019A1A6A42F480021A621A6A22F48002F3
:101688001A6242F22123A4F86430244B5F60A3E776
:10169800244B984219D103F5EE331A6C42F4000238
:1016A8001A641A6C02F400020292029A1A6A42F44C
:1016B80000021A621A6A22F400021A6244F64813F7
:1016C800A4F86430154B9F6086E7174B984283D186
:1016D80003F5EC331A6C42F080721A641A6C02F04B
:1016E80080720392039A1A6A42F080721A621A6A26
:1016F80022F080721A6246F25F03A4F86430074B46
:10170800DF6069E70223A06684F8953005B0F0BD74
:10171800BC95000844950008005400405802002079
:1017280000580040005C00400060004010B50446CE
:1017380090F9640001F0ECFD94F9650001F0E8FD12
:10174800201D02F0ACF80321206E05F0F1F9032109
:10175800E06D05F0EDF92368204A93420DD1204B46
:101768001A6A42F400121A621A6A22F400121A6201
:101778001A6C22F400121A6410BD1A4A93420CD152
:10178800174B1A6A42F480021A621A6A22F480021B
:101798001A621A6C22F48002EDE7134A93420CD1C4
:1017A8000F4B1A6A42F400021A621A6A22F4000203
:1017B8001A621A6C22F40002DDE70C4A9342DBD16C
:1017C800074B1A6A42F080721A621A6A22F0807213
:1017D8001A621A6C22F08072CDE700BF00540040F4
:1017E8000038024000580040005C004000600040A3
:1017F800202A30B514D800239CB2A24207D890F80A
:1018080094301344DBB280F89430002030BD90F857
:101818009440CD5C1C440133044484F87450EBE7D5
:101828000120F3E72DE9F34705460F469046994610
:10183800002401F015FD0435D5F82CA006464B46CA
:10184800424639462846CDF800A002F033F902286E
:1018580006D101F005FD841B642CF0D906201FE099
:1018680008BB01F0FDFC0646284603F01CF82028BA
:1018780009D0632C07D801F0F3FC841B284603F039
:1018880015F80028F0D0284603F010F8632C0CD87F
:1018980082060AD443070AD4003818BF0120800002
:1018A80002B0BDE8F0870420FAE70520F8E7032036
:1018B800F6E710B564230446043002F009F802285C
:1018C80010D0032806D090B194F84530202B18BFCB
:1018D800042004E094F84530202B18BF052008BFE9
:1018E800022004E094F84530202B18BF062010BDD4
:1018F8002DE9F3471F4604460E46914601F0B0FC19
:1019080080463FB901223146204602B0BDE8F04783
:10191800FFF7CFBFD4F830A0002504343B464A4631
:1019280031462046CDF800A002F05AF8022807D127
:1019380001F096FCA0EB0805642DEFD906201FE006
:1019480008BB01F08DFC0646204602F0ACFF2028BB
:1019580009D0632D07D801F083FC851B204602F0CF
:10196800A5FF0028F0D0204602F0A0FF632D0CD878
:1019780082060AD443070AD4003818BF0120800021
:1019880002B0BDE8F0870420FAE70520F8E7032055
:10199800F6E720B119B1C166043002F0A1B9704769
:1019A80020B119B10167043002F09AB9704770B5D7
:1019B80090F8913004460E46051F012B09D1436E5D
:1019C8003BB1836E28469847022384F89130002360
:1019D8006366012E4FF0000312D1E26E84F8913055
:1019E8001AB1284684F89030904794F8902004F172
:1019F800700120464FF00073BDE8704002F0ACB8AB
:101A08000122636620464FF0807384F89120616E4E
:101A180074312944BDE8704002F000B910B590F85F
:101A280091300446012B04D1436E13B1836E043800
:101A380098470223204684F8913000236366BDE866
:101A4800104002F04DB9436E1F2B02DC436E013388
:101A5800436690F89130012BDAB206D1416E4FF00F
:101A680080737031014402F0D9B87047002380F8C0
:101A78009030704790F892300BB902F031B9704746
:101A8800014B186802F040B958020020014B186851
:101A980002F0EEBC58020020014B586802F034B93D
:101AA80058020020014B586802F0E2BC580200209E
:101AB800014B986802F028B958020020014B986839
:101AC80002F0D6BC58020020054B10B5DC68204651
:101AD80002F01AF92046BDE8104002F0C9BC00BF68
:101AE80058020020014BD86802F0C2BC58020020FE
:101AF800704700000B6813B9014B01221A70704738
:101B08009402002008B506F06BFB4FF47A73584333
:101B180008BD00000A4B13B51868C3689A4228BF6D
:101B28001A46002394B2CDE900332246012301F07E
:101B380044FA002814BF2046002002B010BD00BFA0
:101B48009C0200202DE9F04F87B0DFF8ACB0884642
:101B5800144600AF0123042207F11401DBF800004A
:101B680001F074FA064620B900201C37BD46BDE8CE
:101B7800F08FBB8AC3F30E0AA245F5D8DBF8003014
:101B8800D146DB68FB60073323F00703ADEB030D99
:101B980001ABC7F808D07B60B9F1000F01D15046FE
:101BA800E3E7DEB1FC684C4528BF4C46A5B20123EB
:101BB800B9682A46DBF800002C4601F047FA0028ED
:101BC800D2D096B12A46B968A9EB05054046002649
:101BD800A0441FFA85F906F05DFCDDE709F104046D
:101BE800FB689C4228BF1C46E0E7043D7968ADB21B
:101BF8002C462A46E8E700BF9C020020F0B5124BAD
:101C080085B00524114F186802AD1B790026029093
:101C18002B71012305222946CDE90066386801F0B9
:101C2800CCF950B9013C1E2006F0DCFA14F0FF0490
:101C3800EFD14FF0FF3005B0F0BD4FF4967006F0CD
:101C4800D1FA0020F7E700BF108C00089C020020A2
:101C580010B5114C94F90000431C1CD0012106F06A
:101C68001FFA012194F9000006F084FA0A2006F010
:101C7800B9FA002194F9000006F07CFA0A2006F06F
:101C8800B1FA94F90000012106F074FA0A20BDE8BF
:101C9800104006F0A7BA10BDA002002010B5074CEE
:101CA800206800F057FC40B10549064806F06CF87A
:101CB800236800200021C3E9020110BD980200201A
:101CC800B08C0008180F002010B50446FFF7C0FFBD
:101CD8000C49002204F1580000F0DCFA014608B172
:101CE800002010BD04345422204606F08DFB204607
:101CF80000F060FB01460028F2D1034800F052FBD7
:101D08000120EEE7FD1A0008A51C0008024B03603D
:101D1800024B1970704700BFD08D0008A002002048
:101D2800704700002DE9F047DFF8809004460F4621
:101D38009046D9F800001E4610B1102104F07FFC2F
:101D4800102004F07AFC05464246394601F009F9AC
:101D580028460121C9F8005001F01FF9054680B155
:101D68000B4B31462046A3650A4BE3650A4B2366B5
:101D78000A4B63660A4BA3662368BDE8F0471B68F5
:101D880018470849084805F0F5FF2846BDE8F087D8
:101D9800051C0008F91A00084D1B00081D1B000847
:101DA8000D1B0008D58C0008180F00209C0200208D
:101DB800024B002218781A70704700BF9402002066
:101DC8000A4B002210B5196000230C46C1E9022312
:101DD80000F0E2FAD4E90232134305D12078A0F1E9
:101DE8002A035842584110BD0120FCE79802002000
:101DF80008B50846002306490B608B808A60C1E954
:101E0800033300F0E5FAB0FA80F0400908BD00BFDE
:101E180080020020D0F8A03013B19B6803B11847A6
:101E280070477047064B012206481A60D0F8BC205C
:101E380019711AB11946D0F8C0001047704700BF91
:101E4800AC020020C802002013460A46C17A406846
:101E580001F030B84FF4806307B5022201A9A0F859
:101E6800AC30F923ADF80430FFF7EEFF03B05DF8AE
:101E780004FB70B5D0F8A85086B006460E222C7820
:101E88000021AB780DF10700640044EA83046B7805
:101E98001C43EB7844EAC30406F0B6FAFD23E4B227
:101EA80011228DF8043001A996F8AC3030468DF82F
:101EB80006408DF80530AB88ADF80730AB68CDF833
:101EC8000930EB68CDF80D302B69CDF81130FFF7EC
:101ED800BBFF0023C6F8A400C6F8A03006B070BD4A
:101EE8002DE9F04F984689B005460F46164600245E
:101EF80000F11D0313F814202A2A0CD105EB440421
:101F080094F81EB000244FF02A0AA146B44208D320
:101F180009B0BDE8F08F0134402CEBD14FF0000B35
:101F2800F0E75A4639190DF10A008DF809A0CDE9F4
:101F3800008906F0AFFAD5F8C4308DF808B01BB1A7
:101F48006946D5F8C80098475C44A4B2DEE70000AB
:101F580038B5044608461946802803D0812807D09A
:101F6800F0B138BD04F10C00BDE8384006F08ABA7B
:101F7800812A04F11D044FF0000003F1010394BF0E
:101F880052084022824204F10204EADD11F810509E
:101F980004F8025C13F81050013004F8015CF1E712
:101FA800074A0849606800F0ABFE074AA072074973
:101FB800606800F0A5FE0123E0726372D1E700BFFC
:101FC800EB8C0008F28C0008FD8C0008058D0008D9
:101FD8002DE9F84F04468846174632B9D0F8F4314F
:101FE8000133C0F8F431BDE8F88F4FF0000B00F171
:101FF8001D09274D08EB0B0618F80B10002319F8DC
:1020080013208A420CD104EB430393F81EA0BAF1C3
:10201800000F09D1D4F8F8310133C4F8F831E2E7F8
:102028000133402BEBD1F5E7FC2925D1D4F8BC309E
:1020380013B302222A6071782971B178C1F3400084
:10204800287201F001006872C1F38000C1F3C00179
:10205800A872E9723079F17841EA0021D4F8C00019
:10206800A981D6F805102961D6F809106961D6F852
:102078000D10A96106499847524631462046FFF798
:10208800C9FE0BEB0A021FFA82FB5F45B2D8AAE72A
:10209800AC020020012A05D0D0F8F0310133C0F895
:1020A800F03170470B78012BF6D1064A03720023F2
:1020B8001360D0F8BC30002BF3D01146D0F8C00024
:1020C800184700BFAC020020F0B50B78F82B09D1F7
:1020D800D0F8A8603EB990F8AC3086F850300023AC
:1020E800C0E92833F0BD90F8AC3090F8AD409C4280
:1020F800F1D94F781D0106EB0312013377558D781E
:10210800DBB25570CD7895704F6857608D689560D3
:102118000D7B91F80DC045EA0C2595818D7B957353
:10212800C97BD173054A80F8AC30974204BF0524B7
:1021380080F8AD40A342D5D3CDE700BF7FA6980075
:10214800F8B5174C0546206803699847D4F8A0707D
:1021580006460FBB6B682046C4E928579847C8B1A4
:10216800C4E92870F8BD606800F0FAFD20680369CA
:102178009847D4F8A03053B12A68002AF3D0831BBB
:102188009A42F0D800226FF00503C4E92823D4F856
:10219800A400E7E73046ECE76FF00200E2E700BF93
:1021A800C80200202DE9F04F00258BB0044689466F
:1021B80098462F46DFF8CCB0DFF8CCA00192019BFF
:1021C8009F4213D209EB070119F807C0002204F156
:1021D8001D0010F8126066450BD104EB4202967F91
:1021E8005EB9D4F8F8310133C4F8F8310BB0BDE862
:1021F800F08F0132402AECD1F3E7BCF1FB0F05D197
:10220800D1F801506D423E44B7B2D8E7BCF1FA0F9D
:1022180003D1D1F801201544F5E7BCF1EF0F04D143
:1022280032462046FFF7F6FDEDE788784FF0640E5A
:10223800CA7880018DF811C000F47C500244DBF8A4
:102248000000CBF8008080452A4438BFDAF8000047
:102258000EFB02823CBF0130CAF80000DAF8000029
:10226800CDE9022032460DF1120006F013F9D4F838
:10227800C4208DF81060002AC5D002A9D4F8C8007F
:102288009047C0E7A8020020A4020020FFF78ABFF9
:10229800FFF788BFF7B50F4616460546002857D002
:1022A8002E4C4FF4FE720021204606F0ADF8FF23B5
:1022B80028462560E372C4E92F7600F0CDFC606003
:1022C800002848D02246264900F080FC2346254AAB
:1022D8000221606800F0A6FC234B244A02210094E6
:1022E800606800F076FC224B224A02210094606864
:1022F80000F06FFC204B214A02210094606800F036
:1023080068FC1F4B1F4A02210094606800F061FCC2
:1023180023461D4A0121606800F084FC1B4B1C4ABF
:1023280001210094606800F054FC2068194E03698C
:1023380098470546237A43B9606800F011FD206884
:1023480003699847401BB042F4D9002003B0F0BDA0
:102358006FF00100FAE74FF0FF30F7E7C8020020FE
:102368002D1E0008591F0008D91F0008FD8C000801
:10237800952200080F8D0008992200081B8D00087F
:10238800E91E0008258D00082B1E00089D20000866
:10239800EB8C00083F0D0300014B586800F0E0BCCF
:1023A800C8020020024BC3E931010020704700BF7A
:1023B800C8020020044B002243F8040C03489A602A
:1023C800C3E90022FFF7BCBE74030020E08D0008BB
:1023D800054B0022C3E900229A6003F8AC090348C0
:1023E800C3F8A810FFF7ACBE74030020D48D000812
:1023F80038B5044601F10E000D462DED028B00F0B4
:102408007BFA07EE900A9FED178A05F11000F8EEA7
:10241800E77A67EE887AC4ED057A00F06DFA07EE80
:10242800900A05F11200F8EEE77A67EE887AC4EDB3
:10243800067A00F061FA07EE900A05F11400F8EE4A
:10244800E77A67EE887AC4ED077A00F055FA07EE66
:10245800900AF8EEE77A67EE887ABDEC028BC4ED55
:10246800087A38BD0000803838B5044601F10E00FE
:102478000D462DED028B00F03FFA07EE900A9FED16
:102488001C8A05F11000F8EEE77A67EE887AC4ED49
:10249800057A00F031FA07EE900A05F11200F8EE1D
:1024A800E77A67EE887AC4ED067A00F025FA07EE37
:1024B800900A05F11400F8EEE77A67EE887AC4ED21
:1024C800077A00F019FA07EE900A05F11600F8EEFF
:1024D800E77A67EE887AC4ED087A00F00DFA07EE1D
:1024E800900AFAEECA7ABDEC028BC4ED097A38BDBF
:1024F8000000803838B5044601F10E000D462DED78
:10250800028B00F0F9F907EE900A9FED118A05F1A8
:102518001000F8EEE77A67EE887AC4ED057A00F0E5
:10252800EBF907EE900A05F11200F8EEE77A67EE8C
:10253800887AC4ED067A00F0DFF907EE900AF8EE23
:10254800E77A67EE887ABDEC028BC4ED077A38BD6E
:102558000000803B38B52DED028B4B7A04460D46C2
:1025680003702A2BD1E90001C4E9020136D0EA7AC6
:10257800013B62702A7B02F00302A2702A2B00F250
:10258800AA81DFE813F08A00A9002B018A00410123
:102598008A00D000460141014B0156015F016401E8
:1025A8006D0136019A017C019D019A011B018F0082
:1025B8001B016D0176019D019D019D019D01A801F1
:1025C80087019A019D019D019D019D01A801A80116
:1025D800A801A80141014601A801A301002305F1B2
:1025E8000A009FEDBE8A6370A37000F085F907EEBC
:1025F800900A05F10C00F8EEE77A67EE887AC4EDE8
:10260800057A00F079F907EE900A05F10E00F8EE68
:10261800E77A67EE887AC4ED067A00F06DF907EE7E
:10262800900A05F11000F8EEE77A67EE887AC4EDB3
:10263800077A00F061F907EE900A05F11200F8EE4A
:10264800E77A67EE887A9FEDA68AC4ED087A00F0EB
:1026580053F907EE900A05F11400F8EEE77A67EEF1
:10266800887AC4ED097A00F047F907EE900A05F177
:102678001600F8EEE77A67EE887AC4ED0A7A00F079
:102688003BF907EE900AF8EEE77A67EE887AC4ED30
:102698000B7A0020BDEC028B38BD29462046FFF797
:1026A80029FFF6E705F10E0000F026F9A08205F1F2
:1026B800100000F021F9E08205F1120000F01CF989
:1026C800208305F1140000F017F9608305F1160066
:1026D80000F015F9E061DCE705F10E009FED818A55
:1026E80000F00AF907EE900AF8EEE77A67EE887AC2
:1026F80005F11000C4ED057A00F0FEF807EE900A27
:1027080005F11200F8EEE77A67EE887AC4ED067AEA
:1027180000F0F2F807EE900AF8EEE77A67EE887AAA
:10272800C4ED077AB5E705F10E009FED6E8A00F05B
:10273800E3F807EE900AF8EEE77A67EE887A05F193
:102748001000C4ED057A00F0D7F807EE900A05F1FD
:102758001200F8EEE77A67EE887AC4ED067A00F0A0
:10276800CBF807EE900A05F11400F8EEE77A67EE69
:10277800887AC4ED077A00F0BFF807EE900A05F1F1
:102788001600F8EEE77A67EE887AC4ED087A00F06A
:10279800B3F807EE900A05F11800F8EEE77A67EE4D
:1027A800887AC4ED097A00F0A7F807EE900AF8EEE7
:1027B800E77A67EE887AC4ED0A7A6AE705F10E00CF
:1027C80000F09AF8A08205F1100000F095F8E08278
:1027D80005F1120000F090F8208377E705F10E006C
:1027E8009FED418A00F088F807EE900AF8EEE77A44
:1027F8007CE705F10E009FED3C8A00F07DF807EEBE
:10280800900AF8EEE77A98E729462046FFF72CFE6B
:102818003FE729462046FFF7EBFD3AE705F10E00B2
:1028280000F06DF807EE900AFAEEC67AC4ED057A64
:102838002FE705F10E0000F062F807EE900AFAEEB5
:10284800CC7AF3E705F10E0000F056F8F5E705F14C
:102858000E0000F051F807EE900AFAEECE7AE5E79E
:1028680005F10E0000F048F807EE900AFAEEEC7A4F
:10287800DCE705F10E0000F03DF8606109E705F1BD
:102888000E0000F037F8606105F1120000F032F830
:102898002083FEE6AB7B03F07F02DB0963752B46E2
:1028A8002275193513F80F2F04F8162F13F8012F76
:1028B800AB4204F8012FF9D1EBE6AB7B2375E8E6D0
:1028C80005F10E0000F014F8A082E2E6AB7B237558
:1028D800EB7B6375DDE64FF0FF30DBE60000803808
:1028E8000000803A0000003B0000803D00787047FF
:1028F8000088704700687047B0F9000070470068AA
:102908007047F0B40E460546114600241A46049B4B
:10291800B5F8E074B7420AD1D5F8E4743FB10C2594
:10292800BC4605FB0404D4F8E804F0BC6047013455
:102938000C35052CECD1F0BC70472DE9F84F054655
:1029480000F2245400F2C46A4FF0000B54F8048CCF
:10295800C4F824B0B8F1FF3F18D005F2BE660027CE
:10296800D6F82290B9F1000F15D036F8023C9845F8
:1029780011D131462046FDF73BFC60B92C23C4F841
:10298800249003FB0753D3F8E436A3623434544548
:10299800DCD1BDE8F88F01372C36082FE0D1F5E7F8
:1029A80070B50022044690F8DC34242500F58560D3
:1029B800934214DC052B19D05A1C84F8DC242422F9
:1029C8005343E21803F22C43C2F82814E0180849CC
:1029D80005F058FD2046BDE87040FFF7AEBF05FB87
:1029E80002F686598E4201D00132E1E770BD00BF80
:1029F8003B8D0008802938B505461C460BD1184682
:102A0800FDF700FC072806D8214605F10C00BDE8B3
:102A1800384005F037BD38BD2DE9F04F97B0044672
:102A280089460492D9B1D2B10D78C5B9664906A8CC
:102A380005F028FD64490EA8AA4605F023FD2F4697
:102A480002234FF0010884F82434049B434509D835
:102A58000023394620461A460093FFF752FF17B065
:102A6800BDE8F08F19F80830029308F1020308F165
:102A7800010819FA83F61FFA88F819F8082012FADB
:102A880083F303921FFA83F8029B013B082B26D895
:102A9800DFE803F0051D2D313D484F567000002337
:102AA800394620461A460093FFF72BFF3046FFF7BA
:102AB80021FF014607462046FFF772FF424906A854
:102AC80005F0E0FC40490EA805F0DCFC07E03046C4
:102AD800FFF70EFF043880B2FF2800D8A0823946DD
:102AE80020460096DDE90223FFF70BFFADE73046ED
:102AF800FFF7FEFEF3E73046FFF7FAFE043880B230
:102B0800FF288ABF4FF48073E082E382E7E730460C
:102B1800FFF7EEFE043880B2B0F5C07FDFD2A4F82C
:102B28001801DCE730464FF0000AFFF7DFFE0546E4
:102B3800D5E730464FF0010AFFF7D8FE0546CEE745
:102B4800314606A805F09EFC94F8DC2400234FF0DB
:102B5800240C04F5856E9342C1D20CFB03F05EF899
:102B680000108F4204D100F22C4006A92044ABE7A4
:102B78000133F0E731460EA805F084FC072DAED8E6
:102B8800342331466B4304EB030B03F224532344F1
:102B9800CBF820751846059305F074FC00212046F3
:102BA8008BF844A5ABF81C15CBF84815CBF84C1599
:102BB800FFF7C3FE059B0EA9CBF82075184605F054
:102BC80061FC8BF844A58AE73B8D0008C0E9011237
:102BD8007047F8B505461F4608461146E2B1137816
:102BE800D3B195F81C48072C19D8631C85F81C38F4
:102BF8002C235C432E1904F2BE64A6F8BC062819DF
:102C080005F040FC069B2846C6F8E076C6F8E43690
:102C1800FFF793FE0020F8BD6FF00100FBE74FF0CF
:102C2800FF30F8E730B590F8DD44042C0BD8651C6C
:102C380080F8DD540C2505FB0404A4F8E014C4F85E
:102C4800E424C4F8E83490F82434022B04BF0023A9
:102C580080F82434002030BD73B5244C0546217813
:102C680031B940F63402224805F0CEFB0123237027
:102C7800002D35D01E4C2668AEBB40F634023146D6
:102C8800204605F0C1FB4FF0012331462046636121
:102C98002560FFF785FE174904F22450C4F8206523
:102CA80005F0F0FB204684F84465A4F81C65C4F8D8
:102CB8004865C4F84C65FFF740FE314623460E4A86
:102CC8002046FFF7AFFF0D4B0A4A20460094FFF756
:102CD80080FF0123284684F824342B68254698472A
:102CE800284602B070BD0025FAE700BFC4040020E2
:102CF800C8040020318D0008FD290008212A000899
:102D08002DE9F84305468946174600F22C48002667
:102D180049464046FDF76CFA044640B9242303FBB4
:102D28000656D6F82864731C07D1FF2011E0013637
:102D380008F12408052EEBD1F7E705F224553946AA
:102D48002846FDF755FA30B955F8043CB34202D18C
:102D5800E0B2BDE8F88301343435082CEFD1E4E75C
:102D68002DE9F743002390F824540446019355B9FC
:102D780001234F4A294680F82434022300F09AF8A8
:102D880008B184F82454206801AB4FF4C07204F5EC
:102D980029718568A84738B185B2032D07D8D4F8BA
:102DA80024380133C4F8243803B0BDE8F083B4F8FC
:102DB800A49247F6FC7319EA030F0BD1D4F8243810
:102DC8000133C4F824386368002BEDD00121A068D2
:102DD8009847E9E794F8A662072E03D894F81C38B8
:102DE800B34209D8D4F82C380133C4F82C386368B6
:102DF800002BD9D00321EAE7B4F81A31C9F30E0938
:102E0800019A94F8A7728BB194F9A532002B0ADACB
:102E180094F81C31B34206D1342303FB064393F8DC
:102E28001D35BB4216D00023A4F81A31B9F5C07F6E
:102E380009D9D4F828380133C4F828386368002B36
:102E4800B2D00221C3E70023C4F8A02284F81C6191
:102E5800A4F89E324D45B4F89E0204F21D1804F5FC
:102E68002A7128BF4D4640442A1F05F013FBB4F8C9
:102E78009E22043A2A44A9EB050592B2ADB2A4F801
:102E88009E22A4F81A515DB9342000FB0640D0F800
:102E980048552DB1D4F8A0324146D0F84C05A84782
:102EA8003423013703FB064383F81D757CE700BF15
:102EB800EC8D00082DE9F84F1E46838A04468846A3
:102EC800B342934606D3072940D9D0F830380133A6
:102ED800C0F830386FF00100BDE8F88FE58ADB01F3
:102EE80084F81A800BEB0901043D04F11C00ADB213
:102EF800B54228BF35462F1D761BBFB2B6B243EA8E
:102F08001723277663769AF81C355A1C8AF81C25ED
:102F18002A464D44E37605F0BDFA1FFA85F92546A1
:102F280055F8180BC3683A4629469847002808D030
:102F38004FF0010311DAD4F820380133C4F82038EF
:102F4800CAE72046FFF70CFF2068EBE74FF00009BF
:102F58004FF0340A4B460AFB010A002EBED1304618
:102F6800BAE742600022017002722022C2607047F4
:102F7800037A10B5044653B121786068FDF768FFFD
:102F88006068FEF786F8B0FA80F0400910BD0121AC
:102F980000F003F80028EFD1F8E738B504460D46ED
:102FA80040680021FEF73AF90120207225B1204639
:102FB800BDE83840FFF7DCBF38BD2DE9F843DDE94F
:102FC800089615461F463244C368044688469A4206
:102FD80002D90020BDE8F88301784068FDF738FF82
:102FE8007EB960682A46414603685B689847A842EC
:102FF800EFD139466068FDF7D6FFB0FA80F0400996
:10300800E8E7B9F1000FECD060683246494603683A
:103018005B689847B042DCD1E3E770B515460646D1
:103028000C46D2B201784068FEF72AF885420BD1E7
:103038002544A54201D1012070BD706803685B6911
:10304800984704F8010BF4E70020F5E72DE9F84369
:1030580007468846164699460025B54202D3012000
:10306800BDE8F883741BFB6808EB050138469C42F1
:1030780028BF1C46331B2246AB428CBF002309F0F5
:103088000103FFF7CAFF0028EAD02544E5E700005E
:103098002DE9F04116461C46434A01230D460021FE
:1030A8000746DDF81880C0E91E23682205F0ACF950
:1030B800F3B2742B28D83D4A06F4E06652F8233060
:1030C8001E43EBB2BE66742B32D8384A05F4E0656D
:1030D80052F823301D43E3B2FD66742B3CD8334AC3
:1030E80004F4E06452F823301C435FFA88F23C672A
:1030F800742A45D82D4908F4E06351F82220134377
:1031080038467B67BDE8F08106F0C002C02A0CD1C2
:10311800D72B0AD806F03F02254B06F4E06653F891
:103128002220224B53F82230CAE74FF0FF36C8E777
:1031380005F0C002C02A0CD1D72B0AD805F03F02EF
:103148001B4B05F4E06553F82220184B53F8223046
:10315800C0E74FF0FF35BEE704F0C002C02A0CD12B
:10316800D72B0AD804F03F02114B04F4E06453F85B
:1031780022200E4B53F82230B6E74FF0FF34B4E765
:1031880008F0C003C02B0CD1D72A0AD808F03F0298
:10319800074B53F8221008F4E063044A52F8212040
:1031A800ADE74FF0FF33ABE700093D00B8960008E4
:1031B80058960008752307B50C2200930B210D23A0
:1031C8000248FFF765FF03B05DF804FBFC0C002024
:1031D8007047000038B50E4B05461A784FF47A73DD
:1031E800B3FBF2F30B4A1068B0FBF3F000F0A2F85F
:1031F800044658B90F2D09D8024629464FF0FF302A
:1032080000F046F8044B20461D6038BD0120FCE75D
:1032180000000020580000200400002008B5094BD9
:1032280003201A6842F400721A601A6842F4807225
:103238001A6000F01BF80020FFF7CCFFFFF7C8FF6B
:10324800002008BD003C0240034A044B11681B786B
:103258000B441360704700BF7C0D00200000002065
:10326800014B1868704700BF7C0D00200749030216
:10327800CA6803F4E06322F4E0621204120C1343F8
:1032880043F0BF6343F40033CB60704700ED00E0C8
:10329800164B30B5DC68C4F30224C4F10703251DBE
:1032A800042B28BF0423062D4FF0FF358CBF033CA9
:1032B800002405FA03F3002805FA04F521EA0303BC
:1032C80022EA050203FA04F343EA02034FEA03136E
:1032D800DBB206DB00F1604000F5614080F80033A6
:1032E80030BD00F00F00024A1354F9E700ED00E08A
:1032F80014ED00E0002807DB0123410900F01F005E
:10330800024A834042F82130704700BF00E100E0E4
:1033180000280CDB4309012200F01F000449203378
:10332800824041F82320BFF34F8FBFF36F8F704760
:1033380000E100E00138B0F1807F0BD24FF0E023CC
:10334800054AF0215861002082F82310072298616D
:103358001A6170470120704700ED00E0002808DB83
:103368004309012200F01F0002496033824041F8FE
:103378002320704700E100E0704708B5FFF7FCFF25
:1033880008BD704710B5044608B9012010BD437F39
:1033980003F0FF0213B90277FFF7F3FF0223637705
:1033A8002379E3B92368134A5A619A6822F018020C
:1033B8009A6062792368D2B94FF0FF321A6100200F
:1033C8009A68616922F060020A43A1699A609A6862
:1033D80022F080020A439A6001236377D6E7D4E992
:1033E8000212204600F008F80028E2D0CDE7226952
:1033F800E4E700BFB71DC104CB0710B50BD51E23EA
:1034080021FA03F4E40708D5102A18D0102A09D89D
:1034180062B1082A15D0012010E0013BF0D2102A31
:10342800F4D1F8E7182AF6D1062BF4D800684161E0
:10343800836823F0180313438360002010BD072B13
:10344800F3E70F2BF1E710B5044640B102230371EF
:1034580003F0B6F9002020616071207110BD0120D1
:10346800FCE7012310B558B1046801F01001226887
:1034780003FA01F122EA010222600371002010BD63
:103488001846FCE770B50446866DFFF7E9FE054669
:1034980094F83530022B06D0802301206365002381
:1034A80084F8343070BD23681A6822F016021A6056
:1034B8005A6922F080025A61226C0AB9A26C1AB1C8
:1034C8001A6822F008021A601A6822F001021A60CB
:1034D8002368186810F0010007D1E26D3F2393407C
:1034E800B360012384F83530D9E7FFF7B9FE401BF4
:1034F8000528EDD920230320636584F83500CEE73D
:1035080090F83530022B03D08023436501207047A3
:103518000268052380F835300020136823F0010382
:103528001360704790F8350070470000044A5169ED
:10353800014208B502D0506103F016FA08BD00BF79
:10354800003C014003689A69910701D500229A62FC
:103558009A69D20703D49A6942F001029A617047C6
:1035680030B5039DC1F3090104682B43606843EA41
:103578000243054A0B4342EA555223F0004320EA2E
:1035880002000343636030BDFF63FF03204B426BBF
:103598009A4201F0010370B50DB201F0020420D087
:1035A8001C4EB2421DD01C4EB2421AD0002DC3F19F
:1035B8000003B4BFB822002203F0F203134314B18E
:1035C80043F0F40308E0102902D143F0900303E02C
:1035D800202901D143F0200301680A6813430B60D6
:1035E80070BD002DC3F10003B4BFB822002203F060
:1035F800F2031343002CE3D11029E6D0202902D18D
:1036080043F06003E8E7402908BF43F04003E3E7DD
:10361800694300088D4600082542000811F001039F
:1036280007D090F8413003F02803282B14BFF22369
:1036380042238A0709D590F8412002F02802282A57
:103648000CBF43F0440343F0F4030A04016848BF85
:1036580043F0B8030A6822EA03030B6070472DE9B8
:10366800F8430568064688461746AC6914F0100406
:1036780070D000241023A146EB613568AB69980629
:1036880062D4B9F1000F34D044F004040120AB69CE
:10369800D90505D54FF4807244F001040120EA6190
:1036A8005A0505D54FF4806244F008040120EA6108
:1036B8009B0551D54FF4007344F00204EB6130468A
:1036C800FFF740FF6B68012023F0FF7323F48B336F
:1036D80023F4FF7323F001036B60736C234373645B
:1036E800202386F84130002386F8423086F840309F
:1036F80034E0B8F1FF3FC1D0FFF7B2FDC01B404531
:1037080002D8B8F1000FB8D13368596896F842204A
:103718009869D2B200040AD5490408D4202A06D0F0
:103728005A6842F480425A60FFF79AFD07463368A8
:103738009B699D06A1D4FFF793FDC01B1928F6D9F4
:1037480020244FF0010998E7B9F1000F9CD12023FC
:10375800EB6199E720469AE70028B0D1BDE8F883E5
:103768002DE9F041DDF8188004460F4616461D463F
:1037780023689B6937EA03030CBF01230023B34284
:1037880001D0002025E0424629462046FFF767FF82
:10379800F0B96B1CECD0FFF763FDA0EB0800A84262
:1037A80001D8002DE4D123689B6937EA03030CBFD5
:1037B80001230023B342DBD1636C43F0200363642D
:1037C800202384F84130002384F8423084F84030C4
:1037D8000120BDE8F081C36AAA2B02D10023C3628D
:1037E8007047C36AB3F52A4FFAD14FF00073F6E772
:1037F800704710B5044600284ED090F8413003F0C9
:10380800FF021BB980F84020FFF7F2FF242384F859
:10381800413023681A6822F001021A60626822F0B7
:1038280070621A619A6822F400429A60D4E902210F
:10383800012906D142F400429A605A6822F40062D3
:1038480007E042F4044202299A60F6D15A6842F429
:1038580000625A6000205A6842F0007242F4004246
:103868005A60DA6822F40042DA60D4E904210A4393
:10387800A16942EA0122DA60D4E907210A431A6001
:103888001A6842F001021A602023606484F841300B
:10389800206384F8420010BD0120FCE7704710B592
:1038A800044698B10268242380F84130136823F055
:1038B80001031360FFF7F2FF0020606484F8400002
:1038C80084F84100206384F8420010BD0120FCE721
:1038D8002DE9FF471D46002304461746039390F839
:1038E8004130202B79D103689B6913F4004374D1CC
:1038F80090F84020012A70D0C1F30906012246F051
:10390800007880F84020242248F4205880F841208C
:103918004364E3682268012B0ABF46F000734346FC
:1039280043F400535360FFF79BFC81462268936978
:103938009269C3F34013C2F3001213431DD02368E6
:103948009A6912F0100A38D12B4652462021204697
:10395800CDF80090FFF704FF28B3636C042B04D163
:1039680023682022DA61C4F844A0039B013303933F
:10397800039B039BBB42CCD309E06B1CD6D0FFF75B
:103988006FFCA0EB0900A84201D8002DCED120235E
:10399800012084F84130636C43F020036364002302
:1039A80084F8403006E020232268D36184F841304F
:1039B80084F8400004B0BDE8F0871022202120469A
:1039C800DA612B460022CDF80090FFF7C9FE0028E7
:1039D800CBD123682022DA61C7E70220EAE700009A
:1039E800F7B5044690F84100089F20285BD194F869
:1039F8004000012857D0012027F00075626284F842
:103A08004000212084F84100102084F84200002062
:103A180060646385254BE7626363638D9BB2FF2B0C
:103A280024D9FF204FF0807620852DBB944622684C
:103A38001CF8013B93620246608D531EC4F824C0F3
:103A48000138238580B26085236B112B04D1AA2FFE
:103A580002D0B7F52A4F11D12046FFF7BCFE638D7F
:103A68009BB2FF2B00D8E66A114B08E0608DE66A2E
:103A780080B220850028D8D10022E5E700230093F2
:103A880033466DB9D2B200252046FFF769FD2046BE
:103A9800012184F84050FFF779FD284603B0F0BDB6
:103AA80094F82820EFE70220F8E700BFE740000875
:103AB8000020008037B50446069894F84150202D20
:103AC80043D194F84050012D3FD00125626284F81B
:103AD8004050222584F84150102584F84250002592
:103AE800656463851A4BE0626363638D9BB2FF2B49
:103AF80015D9FF234FF080722385236B122B04D135
:103B0800AA2802D0B0F52A4F0DD12046FFF763FE50
:103B1800638D9BB2FF2B00D8E26A0E4B04E0638DE5
:103B2800E26A2385E9E7002300250093204613462F
:103B380094F82820FFF714FD2046022184F840500D
:103B4800FFF724FD284603B030BD0220FBE700BF85
:103B5800E740000800240080F8B51F4690F841307F
:103B680004460E4603F028031546282B01D00120F1
:103B7800F8BD01B11AB94FF400736364F7E748F26E
:103B88000101FFF74BFD90F84030012B40D0012395
:103B980080F8403090F841302A2B14D10221FFF7E9
:103BA8003DFD03681A6810040DD51A68E06B22F40D
:103BB80000421A6038B1174B0365FFF7A1FC10B13A
:103BC800E06B036D984729232068002284F8413070
:103BD800202384F842306264436823F4004343603E
:103BE8006585638DE76223850B4B66626363836932
:103BF8008169C90303D51B0701D50823C361204682
:103C080048F2010184F84020FFF7C0FC0020AFE72C
:103C18000220ADE79948000887470008F8B51F4615
:103C280090F8413004460E4603F028031546282B29
:103C380001D00120F8BD01B11AB94FF400736364D3
:103C4800F7E748F20201FFF7E9FC90F84030012B52
:103C58003FD090F841300121292B80F8401013D132
:103C6800FFF7DCFC03681A6850040DD51A68A06BCE
:103C780022F480421A6038B1174B0365FFF740FC05
:103C880010B1A06B036D98472A232068002284F89E
:103C98004130202384F842306264436823F40043AF
:103CA80043606585638DE76223850C4B66626363B9
:103CB80083698169C90303D41B0701D50823C3613C
:103CC800204648F2020184F84020FFF75FFC0020FC
:103CD800B0E70220AEE700BF994800088747000810
:103CE80008B590F84120202A0AD128224FF4004133
:103CF80080F84120034A4263FFF748FC002008BDD2
:103D08000220FCE7874700080268436B9169126844
:103D180003B1184770477047704738B5002580F8D9
:103D2800425090F84130212B4FF0200380F8413069
:103D38000AD11123012145630363FFF76FFC80F863
:103D48004050FFF7E8FF38BD1223022145630363A3
:103D5800FFF764FC80F84050FFF7DEFFF3E708B593
:103D6800036800211A6880F84210510415D51A68B2
:103D780022F480421A6090F84130292B13D128236D
:103D8800012180F8413021230363FFF747FC00231A
:103D980080F84030FDF76AFE08BD1204EBD51A68BA
:103DA80022F40042E6E790F841302A2BF4D1282388
:103DB800022180F8413022230363FFF72FFC002300
:103DC80080F84030FDF73FFEE6E790F8412002F02A
:103DD8002802282AF8B5036835D19E69C2689D690A
:103DE800C6F30046022A99684FEA1545DF6805F0D0
:103DF800FE051FD185EAD115C1F3090215F00605A4
:103E08000ED1816C01318164816C022907D10821AE
:103E18008564D96180F840503146FDF7C8FDF8BD8A
:103E28004FF40041FFF7FAFB002307F0FE0280F889
:103E38004030F1E74FF40041FFF7F0FB00232A463A
:103E480080F84030E8E70822DA61002380F8403043
:103E5800E5E7000008B5164B2022C3620023036380
:103E6800436380F8412080F842304B0712D503683D
:103E78005A6A436A1A70436A01334362038D4BB12D
:103E8800013B0385438D013B9BB24385436C43F063
:103E98000403436448F20301FFF7C0FB03681022E0
:103EA800DA61002380F84030FDF7B8FD08BD00BF97
:103EB8000000FFFF70477047704790F84120602A64
:103EC8004FF0000208B508D1202180F8402080F882
:103ED80041100263FFF7F0FF08BD026380F840203D
:103EE800FDF7C8FDF8E7000070B5002290F84130F2
:103EF8003C4D044680F84220283BC5624285022B8F
:103F0800426C42EA010242642AD80321FFF786FB89
:103F1800282380F84130344BA06B6363236B00285F
:103F280041D0112B01D0212B3DD123681A685104AF
:103F380003D51A6822F480421A60FFF7F3FA0128C1
:103F48002CD02A4BA06B0365002384F84030FFF780
:103F5800D7FA002845D0A06B036DBDE8704018471C
:103F680048F20301FFF75AFBFFF7ECFA90F84130EB
:103F7800602B11D0202380F8413003689A69950698
:103F88000AD59A69D00605D51022DA61626C42F02A
:103F9800040262642022DA610023BDE72046BDE8FE
:103FA8007040FFF78ABFE06B0028F7D0122B01D0D2
:103FB800222BF3D123681A68120403D51A6822F455
:103FC80000421A60FFF7AEFA0128E7D0074BE06B12
:103FD8000365002384F84030FFF792FA08B1E06BDC
:103FE800BAE770BD0000FFFF87470008994800083E
:103FF80073B52023056804460E46EB6190F84130FE
:10400800212B36D10121FFF709FB112323636B68AC
:10401800F20623F0FF7323F48B3323F4FF7323F0AA
:1040280001036B604FF000036363A3F58033E36221
:1040380005D51023EB61636C43F00403636494F8C3
:104048004130602B05D1730703D56B6ADBB201934E
:10405800019B2046FFF776FA636C94F84120602AAA
:1040680000D07BB1616C204602B0BDE87040FFF71C
:104078003BBF90F84130222BC9D10221FFF7CEFA7D
:104088001223C3E794F84120212A12D1202284F870
:10409800403084F84120236394F8422084F8423069
:1040A800402A03D1FFF706FF02B070BDFFF733FEC9
:1040B800FAE794F84120222AF6D1202284F84030E9
:1040C80084F84120236394F8422084F84230402A3F
:1040D80002D1FFF7F0FEE7E7FFF71EFEE4E773B54E
:1040E80090F8403004460D461646012B00F09380A8
:1040F8000123E90680F8403017D5F20615D5036884
:104108001022DA61436C43F004034364FFF71AFAA0
:10411800AA0605D5B30603D529462046FFF768FF4A
:10412800002084F8400002B070BD6B0712D57007FC
:1041380010D5236825F004055A6A636A1A70636A01
:1041480001336362238D013B2385638D013B9BB261
:104158006385DDE76906C5F380130DD4AA070BD57F
:10416800B00709D5638D9BB2002BD1D0636A226852
:1041780013F8011B9162E4E7290637D57206C7D503
:10418800628D236892B22AB3208D18BB5968628D5C
:10419800C1F3090192B2FF2A0DD99B6913F4803F3C
:1041A8004FF080730CBFFF22012222850090204629
:1041B800FFF7D6F9ACE7628DE36A92B213F5803F58
:1041C8002285D2B202D0E36A0090F0E74FF0007384
:1041D8000090ECE75B689B0103D42046FFF79DFD48
:1041E80096E740212046FFF77FFE91E7002B8FD00E
:1041F80070068DD5638D9BB2002BF2D123685A6867
:10420800910185D4E26A12F5803FE6D15A6842F4FA
:1042180080425A607CE7022085E7000037B590F8B5
:1042280040300446012B00F09480012380F8403090
:10423800CB0612D5D30610D5036810222021DA61E7
:10424800436C43F004034364FFF7A0F9FFF77AF9DE
:10425800002084F8400003B030BD880708D59307D4
:1042680006D52368226D9A624FF0FF332365EFE786
:1042780008063ED553063CD501212046FFF7CEF966
:104288001021FFF783F9638D9BB2002B2DD0638D2E
:104298009BB2FF2B1FD923689B69E16C13F4803F05
:1042A8004FF000030CBFFF250125258500932A4602
:1042B8004FF0807389B2FFF753F9638D5B1B9BB294
:1042C800638594F841202368222A1A6836D142F47B
:1042D80000421A60BCE7658D0023E16CADB225850C
:1042E8000093EAB24FF00073E4E74021FFF7FCFDCA
:1042F800AEE7480625D5530623D501212046FFF70A
:104308008DF91021FFF742F994F84110124A134B26
:10431800222918BF1346628D92B2FF2A09D9226852
:104328009269E16C12F4803F0CBFFF2501252585B9
:10433800BCE7658DE16CADB22585D1E742F48042DA
:10434800C7E7880684D5930682D52046FFF750FE36
:104358007EE702207FE700BF002000800024008065
:1043680073B590F840300446012B7FD00123CD0669
:1043780080F8403012D5D30610D5036810222021CA
:10438800DA61436C43F004034364FFF7FFF8FFF777
:10439800D9F8002084F8400002B070BD0E0648D558
:1043A800550646D525682B6823F040032B60638D9E
:1043B8009BB2002B31D06968638DC1F309019BB2B0
:1043C800FF2B1FD9AB69D8031AD5012323854FF0DA
:1043D80080730022268D2046009294F82820FFF74B
:1043E800BFF8638D9B1B9BB2638594F84130222BE9
:1043F8002B680CBF43F4004343F480432B60C8E7A9
:10440800FF23E3E7638D2385E36A13F5803F01D03B
:10441800E36ADEE74FF00073DBE76B689A0103D4C9
:104428002046FFF77AFCB4E740212046FFF75CFD01
:10443800AFE74B0612D5560610D5638D9BB2002BFD
:10444800F2D123685A689501A3D4E26A12F5803F35
:10445800E6D15A6842F480425A609AE7880698D5AD
:10446800930696D52046FFF7C3FD92E7022093E70F
:10447800036899691A6810B4CC0508D5140606D5DE
:10448800446C44F0010444644FF48074DC614C05CE
:1044980008D5140606D5446C44F0080444644FF467
:1044A8008064DC61890508D5120606D5426C42F0A5
:1044B800020242644FF40072DA61416C11F00B0F92
:1044C80003D05DF8044BFFF70FBD5DF8044B704750
:1044D8002DE9F0410568202204460E46D5F80080F3
:1044E800C76A90F84130EA61213B092B0CD8DFE814
:1044F80003F0056B0B0B0B0B0B71056B48F20101FD
:10450800FFF78CF8212323636B68204643F40043AC
:104518006B606B6823F0FF7323F48B3323F4FF7312
:1045280023F001036B60FFF70DF818F4804F57D0A4
:104538002B6823F480432B60A36B1BB11B685B685B
:104548009BB2638572070FD5636A26F004066A6A10
:104558001A70636A01336362238D2BB1013B238593
:10456800638D013B9BB26385638D9BB21BB1636C0A
:1045780043F004036364F30611D518F0100F0ED04E
:10458800638D9BB2002B45D194F84130282B30D154
:10459800B7F1007F2DD131462046FFF75BFC0023A1
:1045A80084F84230656C6363002D42D0616C20460C
:1045B800FFF79AFC94F84130282B4CD1314620461D
:1045C800BDE8F041FFF746BC48F20201FFF726F8C4
:1045D800222398E748F20301FFF720F8002392E727
:1045E80018F4004FAED02B6823F400432B60E36B24
:1045F800A3E794F841202368292A4FF01002DA61D2
:10460800CDD117F5803FCAD02046FEF79BFFFFF7B4
:10461800A6FBC4E723681022DA61636C43F0040345
:10462800636437F08073BAD1616C2046FFF75CFC95
:10463800B5E7E36A13F5803F0FD02046FFF78FFBFD
:104648000F4B204684F84050E362202384F8413021
:104658002563FDF7E3F9BDE8F08194F84130204681
:1046680084F84050222B4FF0200384F84130256312
:1046780002D1FDF7E8F9EEE7FDF7F8F9EBE700BF3F
:104688000000FFFF70B590F8406004460B46C56A0D
:10469800012E72D0012680F840608E0607D5960656
:1046A80005D5FFF715FF002084F8400070BDDE0631
:1046B8005BD5D00659D5C2F3803002F4004252EAE5
:1046C80000014ED0E16BC9B122B10A685268B2FA52
:1046D80082F25209A16B19B110B10968496809B190
:1046E800012A1ED194F84120282A09D1B5F1007F6A
:1046F80006D119462046FFF7ADFBD4E70A46E9E79D
:1047080094F841202368292A4FF01002DA61CAD1AF
:1047180015F5803FC7D02046FEF714FFFFF71FFBB3
:10472800C1E723681022DA6135F08072636C43F0C8
:104738000403636494F84130DBB2B4D1213B092B04
:1047480008D8DFE803F0050C070707070707050C7B
:1047580021232363616C2046FFF7C6FBA3E72223CE
:10476800F7E723681022DA619DE719079BD513073D
:1047780099D52046FFF729FB95E7022096E770B503
:1047880090F8406004460B46C56A012E7ED001268B
:1047980080F840608E0607D5960605D5FFF798FE87
:1047A800002084F8400070BDD90630D5D6062ED535
:1047B800628D92B2E2B994F84120282A07D1B5F166
:1047C800007F04D119462046FFF744FBE8E794F838
:1047D80041202368292A4FF01002DA61E0D115F54B
:1047E800803FDDD02046FEF7ADFEFFF7B8FAD7E7E9
:1047F80023681022DA61636C43F00403636435F0C4
:104808008073CDD1616C2046FFF76EFBC8E758076F
:104818001BD5510719D5638D9BB26BB123685A6AB2
:10482800636A1A70636A01336362238D013B2385CF
:10483800638D013B9BB26385638D9BB2002BAFD127
:1048480015F5803FACD02046CFE71E0705D51007E9
:1048580003D52046FFF7B9FAA2E79907A0D5930731
:104868009ED5638D9BB26BB1636A226813F8011BF6
:1048780091626362638D013B9BB26385238D013B2B
:1048880023858DE735F080738AD1DCE702208AE73B
:10489800806B836B0BB100221A65C36B0BB10022CE
:1048A8001A65FFF70ABB90F841007047406C7047E3
:1048B800194B37B51A6C194C42F080521A641B6CAC
:1048C80003F080530193019B236843F480332360F2
:1048D800FEF7C6FC05466368DA030CD523680F4D5E
:1048E80043F400332360FEF7BBFC04466B689B036C
:1048F8000AD5002006E0FEF7B3FC401BB0F57A7F2E
:10490800E9D9032003B030BDFEF7AAFC001BB0F5BF
:104918007A7FEBD9F5E700BF00380240007000400D
:104928002DE9F341044618B9012002B0BDE8F08131
:104938000368DE0710D423689D075ED4236819072F
:1049480000F1A38023685A0700F1C480A269002AF5
:1049580040F02E810020E8E7934B9A6802F00C02A1
:10496800042A07D09A6802F00C02082A0AD15B6868
:10497800590207D58C4B1B689A03DCD56368002B5A
:10498800D9D1D1E76368884DB3F5803F11D12B6841
:1049980043F480332B60FEF763FC834E054633688F
:1049A8009B03C8D4FEF75CFC401B6428F7D903209E
:1049B800BBE79BB92B6823F480332B602B6823F467
:1049C80080232B60FEF74CFC06462B689F03B2D56C
:1049D800FEF746FC801B6428F7D9E8E7B3F5A02F5B
:1049E8002B6803D143F480232B60D0E723F4803372
:1049F8002B602B6823F48023CCE76B4B9A6812F06A
:104A08000C0F07D09A6802F00C02082A11D15B68D3
:104A18005D020ED4644A1368990702D5E368012B36
:104A280082D11368216923F0F80343EAC1031360B4
:104A380084E7E3685C4DBBB12B6843F001032B604E
:104A4800FEF70EFC06462B689B0707D52B682269E4
:104A580023F0F80343EAC2032B606FE7FEF700FC7C
:104A6800801B0228EFD9A2E72B6823F001032B60F3
:104A7800FEF7F6FB06462B689F077FF55FAFFEF74C
:104A8800EFFB801B0228F6D991E76369464D83B195
:104A98006B6F43F001036B67FEF7E2FB06466B6F33
:104AA8009B073FF54FAFFEF7DBFB801B0228F6D9CB
:104AB8007DE76B6F23F001036B67FEF7D1FB0646BA
:104AC8006B6F9F077FF53EAFFEF7CAFB801B02287E
:104AD800F6D96CE7344B1A6CD50027D41A6C012729
:104AE80042F080521A641B6C03F080530193019BBF
:104AF8002E4D2B68D8051BD5A3682B4D012B27D12C
:104B08002B6F43F001032B6741F28838FEF7A8FBAF
:104B1800254E0546336F9A073FD5002F3FF416AF51
:104B2800214A136C23F0805313640FE70027DFE753
:104B38002B6843F480732B60FEF792FB06462B68C4
:104B4800D905D9D4FEF78CFB801B6428F7D92EE74A
:104B5800ABB92B6F41F2883823F001032B672B6F19
:104B680023F004032B67FEF77BFB06462B6F9B079E
:104B7800D3D5FEF775FB801B4045F7D917E7052B02
:104B88002B6F03D143F004032B67B9E723F001032C
:104B98002B672B6F23F00403B5E7FEF761FB401B7F
:104BA8004045B7D903E700BF003802400070004015
:104BB8003C4DAB6803F00C03082B42D02B68022A4B
:104BC80023F080732B602FD1FEF74AFB06462B6833
:104BD800990123D4D4E907321343626A43EA821362
:104BE800E26A43EA0263226B43EA0273A26A52084A
:104BF800013A43EA02436B602B6843F080732B60F1
:104C0800FEF72EFB274D04462B689A013FF5A2AE0E
:104C1800FEF726FB001B0228F6D9C8E6FEF720FBA4
:104C2800801B0228D3D9C2E6FEF71AFB04462B687C
:104C38009B017FF58FAEFEF713FB001B0228F6D908
:104C4800B5E6012A6B683FF46FAE03F48002E169B0
:104C58008A427FF469AE03F03F02216A8A427FF4F8
:104C680063AE47F6C072616A1A40B2EB811F7FF4E7
:104C78005BAEA26A03F440315208013AB1EB024F2D
:104C88007FF452AE03F07062E16AB2EB016F7FF419
:104C98004BAE226B03F0E043B3EB027F14BF01205D
:104CA800002042E600380240134908B58B6803F03B
:104CB8000C03042B1BD0082B1BD14A684B6849688E
:104CC80002F03F0213F48003C1F388111ABF0B48A6
:104CD80000230B48A1FB0001FBF7BAFE064B5B68FB
:104CE800C3F3014301335B00B0FBF3F008BD034895
:104CF800FCE70348FAE700BF0038024000127A00D8
:104D08000024F4002DE9F0410D46044610B90120B5
:104D1800BDE8F081454A136803F00F038B4228D39E
:104D280021688F0730D4C80743D4404A136803F07A
:104D38000F03AB4266D8226851076FD4130707D513
:104D48003B4A2169936823F4604343EAC1039360B3
:104D5800FFF7AAFF364B374A9B68C3F30313D35CAC
:104D6800D840354B1860354B1868FEF733FA0020E9
:104D7800CEE7136823F00F030B431360136803F0A7
:104D88000F038B42C3D1CBE711F0040F284B03D09C
:104D98009A6842F4E0529A600E0703D59A6842F482
:104DA80060429A609A68A06822F0F00202439A6012
:104DB800B9E761681E4B01291A681BD112F4003F3C
:104DC800A5D09A6841F28838194F22F003020A43A5
:104DD8009A60FEF745FA0646BB68626803F00C0362
:104DE800B3EB820FA1D0FEF73BFA801B4045F3D905
:104DF80003208DE7022902D112F0007FE0E712F0CC
:104E0800020FDDE7136823F00F032B4313601368C9
:104E180003F00F03AB427FF47AAF8CE70449E068F4
:104E28008B6823F4E05303438B6087E7003C024020
:104E380000380240388E0008580000200400002086
:104E4800044B054A9B68C3F38223D35C034A10686A
:104E5800D840704700380240308E000858000020C3
:104E6800044B054A9B68C3F34233D35C034A10687A
:104E7800D840704700380240308E000858000020A3
:104E88002DE9F7430268044612F001030BD0AF493D
:104E98008B6823F400038B60636B88681843B3FA4C
:104EA80083F35B09886012F4002612D0A748E66BEA
:104EB800D0F88C10B6F5801F21F4401108BF0123EB
:104EC80041EA060116BFB6FA86F600267609C0F84A
:104ED8008C10D00211D59D4D206CD5F88C10B0F5F2
:104EE800800F21F4400141EA0001C5F88C1000F060
:104EF800A981002808BF46F00106C2F300679106A1
:104F080047EA030731D5914B914D1A6C42F0805214
:104F18001A641B6C03F080530193019B2B6843F4C4
:104F280080732B60FEF79CF980462B68DA0540F108
:104F38008B81864D2B6F13F4407340F09081236B67
:104F480003F44072B2F5407F804A40F0AE81916828
:104F580023F0704021F4F81120F44070014391606F
:104F6800C3F30B03116F0B4313672568E9060CD5D0
:104F7800764BD3F88C2022F08072C3F88C20D3F8BB
:104F88008C20A16B0A43C3F88C206A0408D56F4AA9
:104F9800616ED2F8903023F440330B43C2F890305E
:104FA8002B0408D5694AA16ED2F8903023F4402327
:104FB8000B43C2F89030E80308D5644AE16ED2F892
:104FC800903023F440130B43C2F89030A90308D55E
:104FD8005E4A216FD2F8903023F440030B43C2F8A5
:104FE80090306A0608D5594A616CD2F8903023F09F
:104FF80003030B43C2F890302B0608D5534AA16C23
:10500800D2F8903023F00C030B43C2F89030E80537
:1050180008D54E4AE16CD2F8903023F030030B43A8
:10502800C2F89030A90508D5484A216DD2F89030C9
:1050380023F0C0030B43C2F890306A0508D5434AF1
:10504800616DD2F8903023F440730B43C2F890306E
:105058002B0508D53D4AA16DD2F8903023F4406362
:105068000B43C2F89030E80408D5384AE16DD2F80D
:10507800903023F440530B43C2F89030A90408D56C
:10508800324A216ED2F8903023F440430B43C2F8E1
:1050980090306A0208D52D4AA16FD2F8903023F0DB
:1050A80080630B43C2F89030AB020DD52749E26FFD
:1050B800D1F89030B2F1006F08BF46F0010623F036
:1050C80000631343C1F89030680308D51F4A616F25
:1050D800D2F8903023F040730B43C2F89030290285
:1050E80009D51A4AD4F88010D2F8903023F08053AA
:1050F8000B43C2F890306A0109D5144AD4F88410D9
:10510800D2F8903023F000530B43C2F890302B01B3
:1051180009D50E4AD4F88810D2F88C3023F00073E1
:105128000B43C2F88C30E80009D5084AD4F88C1033
:10513800D2F88C3023F080630B43C2F88C30002FF8
:1051480040F0B780A90100F1B48003E000380240C4
:1051580000700040C5F3C0053543012D70D19F4D47
:105168002B6823F080532B60FEF77AF806462B68ED
:105178009F0000F1248121680E0301D5E36B1BB168
:10518800CD021DD5236CDBB9944AD2F88830D2F809
:10519800880003F4403300F0E0400343606943EAC9
:1051A8008013A06943EA0063C2F88830D2F88C30D3
:1051B800A06A23F4F853013843EA0023C2F88C307C
:1051C800880215D5E36FB3F1006F11D1834AD2F885
:1051D8008830D2F8880003F0706300F0E0400343A1
:1051E800606943EA8013206A43EA0043C2F88830C2
:1051F8000A0719D57949D1F88820D1F8883002F002
:10520800706203F440331343626943EA8213E2692C
:1052180043EA0273C1F88830D1F88C30E26A23F48B
:1052280040331343C1F88C306C4C236843F08053EF
:105238002360FEF715F8054623689B0040F1C680F9
:10524800002009E0012358E6FEF70AF8A0EB080061
:1052580064287FF66AAE032003B0BDE8F083226BB2
:1052680002F4407293423FF46AAE2B6F2A6F23F424
:10527800407342F480322A672A6F22F480322A6708
:105288002B672B6FDB077FF55AAEFDF7E9FF41F27D
:10529800883980462B6F98073FF551AEFDF7E0FF40
:1052A800A0EB08004845F5D9D5E7916821F4F81135
:1052B80055E64A4F3B6823F080633B60FDF7D0FF1B
:1052C80080463B681A0173D42268D30712D5636BF2
:1052D80083B9D7F88430D7F8841003F4403301F049
:1052E80070610B43616843EA8113A16843EA017363
:1052F800C7F88430170303D5E36BB3F5801F05D0D7
:10530800D0021ED5236CB3F5800F1AD13349D1F8DA
:105318008430D1F8840003F4403300F0E0400343C4
:10532800606843EA8013E06843EA0063C1F88430A8
:10533800D1F88C00636A20F01F00013B0343C1F8D9
:105348008C30D10111D52549D1F88430D1F88400A9
:1053580003F0706300F0E0400343606843EA8013A1
:10536800206943EA0043C1F8843092010DD52369CE
:1053780062681B0443EA8213E26843EA0263A26894
:1053880043EA0273154AC2F88430144F3B6843F06D
:1053980080633B60FDF764FF80463B681B013FF577
:1053A800D9AEFDF75DFFA0EB08006428F5D952E7F8
:1053B800FDF756FFA0EB0800642882D94BE7FDF7FC
:1053C8004FFF801B64287FF6D2AE44E7FDF748FF05
:1053D800401B64287FF630AF3DE700BF003802402D
:1053E800B0F5002F43D1334BD3F88C2002F4401290
:1053F800B2F5001F5BD01ED8002A47D15A6812F4B4
:10540800800F5A6808BF2C4B02F03F0218BF2B4B85
:10541800B3FBF2F3274AD2F88810D2F88800C0F319
:1054280088105843C1F30363B0FBF3F0D2F88C3013
:10543800C3F3042317E0B2F5401F30D000207047B3
:105448001E4BB3FBF2F31B4AD2F88410D2F8840047
:10545800C0F388105843C1F30363B0FBF3F0D2F8EC
:105468008C3003F01F030133B0FBF3F07047B0F545
:10547800801FE3D10F4BD3F88C2002F44002B2F521
:10548800000F14D0B8D9B2F5400FD6E75A6812F415
:10549800800F5A6802F03F02D2D1074BD1E75B6810
:1054A800054813F4800F054B18BF18467047044889
:1054B800704700BF003802400024F40000127A0050
:1054C8000080BB0070477047036870B5DD6804460C
:1054D8001E69B2070DD5A9070BD56FF002021A6134
:1054E800012202779B699A0775D001F0A4F800237E
:1054F8002377730710D568070ED523686FF0040269
:1055080020461A61022222779B6913F4407F68D0F3
:1055180001F091F80023237731070FD52A070DD51D
:1055280023686FF0080220461A6104222277DB699B
:105538009B075CD001F07FF800232377F10610D594
:10554800EA060ED523686FF0100220461A61082279
:105558002277DB6913F4407F4FD001F06CF8002309
:105568002377F30708D5E80706D523686FF001020B
:1055780020461A6101F03CF816F4025F08D02906AB
:1055880006D523686FF4025220461A6100F0C1F86C
:10559800F20508D52B0606D523686FF480722046DD
:1055A8001A6100F0B7F8700608D5690606D52368B1
:1055B8006FF0400220461A61FFF785FFB20622D538
:1055C800AB0620D523686FF0200220461A61BDE89B
:1055D800704000F09DB801F02CF82046FFF772FFEC
:1055E80085E701F026F82046FFF76CFF92E701F007
:1055F80020F82046FFF766FF9EE701F01AF82046DC
:10560800FFF760FFABE770BD274A0368904212D0EE
:10561800B0F1804F0FD0A2F57C4290420BD002F53A
:105628008062904207D002F58062904203D002F572
:105638007842904208D123F070034A68134323F458
:105648004073CA68134316E0184A9042F7D002F52F
:1056580080629042F3D002F580629042EFD0A2F5CA
:1056680098329042EBD002F580629042E7D002F582
:1056780080629042E3D04A6923F0800313438A682A
:10568800C2620A688262084A904203D002F58062C8
:10569800904201D10A690263026842F00402026082
:1056A8000122426103607047000001400040014050
:1056B80010B5044650B390F83D3003F0FF021BB913
:1056C80080F83C2001F072FD02232068211D84F837
:1056D8003D30FFF799FF0123002084F8483084F813
:1056E8003E3084F83F3084F8403084F8413084F804
:1056F800423084F8433084F8443084F8453084F8E4
:10570800463084F8473084F83D3010BD0120FCE76E
:10571800704770477047026852E8003F23F490735F
:1057280042E8003102680029F5D102F1080353E884
:10573800003F23F0010302F1080C4CE80031002976
:10574800F3D1036E012B07D152E8003F23F0100379
:1057580042E800310029F7D12023C0F88030002327
:10576800036683667047026852E8003F23F08003AF
:1057780042E8003102680029F5D152E8003F43F0C1
:10578800400342E800310029F7D17047C26F034651
:10579800212A11D1B0F8522092B20AB9FFF7E3BF1B
:1057A800C26C016812F8010B8862DA64B3F85220FF
:1057B800013A92B2A3F852207047C26F0346212AD9
:1057C80013D1B0F8522092B20AB9FFF7CCBFDA6C05
:1057D800006832F8021BC1F308018162DA64B3F889
:1057E8005220013A92B2A3F8522070477047000045
:1057F8000346C06F202822D119B312B3A3F8522050
:10580800A3F850200022D964C3F884202122DA6743
:105818009A68B2F5805F10D118690B4A0B490028C5
:1058280018BF0A46DA66196851E8002F42F080026C
:1058380041E800200028F6D17047044AF2E7022028
:1058480070470120704700BFC357000895570008EC
:1058580008B5806B0023A0F85A3001F05FFF08BD3F
:105868007047D0F88020222A08B5036854D15B6AB3
:10587800B0F85C10426D0B401370436D0133436503
:10588800B0F85A30013B9BB2A0F85A30B0F85A3001
:105898009BB2002B3FD1026852E8003F23F490737B
:1058A80042E8003103680029F5D103F1080252E803
:1058B800002F22F0010203F1080C4CE80021002916
:1058C800F3D120228166C0F8802041665A6811020F
:1058D80005D4026E012A0BD001F018FF1BE053E833
:1058E800002F22F0806243E800210029F7D1F0E779
:1058F8000022026653E8002F22F0100243E800213C
:105908000029F7D1DA69D20601D510221A62B0F857
:105918005810FFF7A5FF08BD9A6942F008029A617E
:10592800F9E7D0F88020222A08B5036851D1596ACE
:10593800B0F85C201140426D22F8021B4265B0F8B5
:105948005A20013A92B2A0F85A20B0F85A2092B2DE
:10595800002A3DD153E8002F22F4907243E8002139
:105968000029F7D103F1080252E8002F22F00102C2
:1059780003F1080C4CE800210029F3D120228166AC
:10598800C0F8802041665A68110205D4026E012AC7
:105998000BD001F0BBFE1BE053E8002F22F0806221
:1059A80043E800210029F7D1F0E70022026653E816
:1059B800002F22F0100243E800210029F7D1DA690C
:1059C800D20601D510221A62B0F85810FFF748FF26
:1059D80008BD9A6942F008029A61F9E7036870B550
:1059E800DA6940F60F061968044632429D680BD101
:1059F800960640F188808E0640F18580836E002BE4
:105A08007BD0BDE8704018479C4E05F001000E4061
:105A1800064378D0D50709D5CE0507D501251D62DF
:105A2800D4F8845045F00105C4F88450950708D58A
:105A380038B102251D62D4F8845045F00405C4F835
:105A48008450560708D538B104251D62D4F884500F
:105A580045F00205C4F8845015070BD501F0200560
:105A6800054307D008201862D4F8840040F00800E5
:105A7800C4F8840016050AD54D0108D54FF4006016
:105A88001862D4F8843043F02003C4F88430D4F882
:105A98008430002B31D0900605D58A0603D5A36E35
:105AA8000BB12046984726682046D4F88420B3686E
:105AB80002F0280203F0400353EA02051ED0FFF764
:105AC8002AFEB3685B0615D5226802F1080353E87D
